:0300000002050BEB
:0100030032CA
:03000B000200F5FB
:0100130032BA
:01001B0032B2
:0100230032AA
:03002B0002011AB5
:10002E00C00078B10000D8FCD00022C000C0017919
:10003E002D78A6D8FED9FADAF6D001D00022D293C6
:10004E0012002EC29322A2E792B5A2E692B4A2E5C6
:10005E0092B3A2E492B212004C12002EA2E392B519
:10006E00A2E292B4A2E192B3A2E092B212004C22AA
:10007E00D291020054C291020054C293C2927433C0
:10008E0012008374331200837432120083742812A8
:10009E000083740C1200837401120083C0027A0272
:1000AE00120039D00222E493600612007EA380F67D
:1000BE002244404480020083C0E0E8C4540F443020
:1000CE0012007EE8540F443012007ED0E022E58903
:1000DE0054F04401F589758CEA758AE875F4EA7571
:1000EE00F2E8D2A9D28C22B2B73275C80075CDA96A
:1000FE0075CC9A75CBA975CA9AE4F530F53175337E
:10010E0000753600753A00D2ADD2CA22C2CFB2B651
:10011E00C0E0C0D00530E53070020531E530B4E8FE
:10012E0041E531B4033CD200B28CE4F530F531E553
:10013E0032308004240180022499D4F532B4602038
:10014E007400E53604D4F536B460117400E533045A
:10015E00D4F533B412027400F5337400F53674001E
:10016E00F532D0D0D0E03274401200837407120002
:10017E007E740F12007E741F12007E741F12007E9A
:10018E00741F12007E741F12007E741F12007E7484
:10019E001F12007E741F12007E741F12007E741FC9
:1001AE0012007E740012007E740012007E74001223
:1001BE00007E740012007E740012007E741C120009
:1001CE007E741E12007E741F12007E741F12007E3B
:1001DE00741F12007E741F12007E741F12007E7434
:1001EE001F12007E741F12007E741F12007E741F79
:1001FE0012007E741F12007E741F12007E741F1276
:10020E00007E740F12007E740712007E74001200BE
:10021E007E740012007E740012007E740012007E46
:10022E00740012007E741F12007E741F12007E7402
:10023E001F12007E741F12007E741F12007E741F28
:10024E0012007E741F12007E741F12007E741F1225
:10025E00007E741E12007E741C12007E741F12002B
:10026E007E741F12007E741F12007E740012007EB8
:10027E00740012007E740012007E741F12007E74D1
:10028E001F12007E741F12007E740012007E740016
:10029E0012007E740012007E740012007E741F1213
:1002AE00007E741F12007E741F12007E22E94480AD
:1002BE00120083740012007E740112007E7402120A
:1002CE00007E742012007EE944C012008374031273
:1002DE00007E740412007E740512007E74201200DB
:1002EE007E22E94480120083740112007E74021291
:1002FE00007E742012007E742012007EE944C0122B
:10030E000083740412007E74FF12007E74041200C7
:10031E007E742012007E22E944801200837406123D
:10032E00007E740612007E740212007E742012008B
:10033E007EE944C0120083740312007E740712001B
:10034E007E740712007E742012007E22E944801211
:10035E000083740612007E740612007E7402120070
:10036E007E742012007EE944C012008374071200CE
:10037E007E740712007E740512007E742012007EB9
:10038E0022E94480120083740312007E740412006A
:10039E007E740212007E742012007EE944C01200A8
:1003AE0083742012007E742012007E74FF12007E71
:1003BE00742012007E22E9448012008374FF120022
:1003CE007E740612007E740612007E742012007E69
:1003DE00E944C0120083740712007E740712007E77
:1003EE00740512007E742012007E22E944801200F1
:1003FE0083740012007E740612007E740612007E54
:10040E00742012007EE944C0120083740312007E31
:10041E00740712007E740512007E742012007E2274
:10042E00E94480120083740112007E740112007E72
:10043E00740212007E742012007EE944C012008302
:10044E00742012007E742012007E740012007E74DE
:10045E002012007E22E94480120083740012007E76
:10046E00740612007E740212007E742012007EE961
:10047E0044C0120083740312007E740712007E744F
:10048E000512007E742012007E22E9448012008341
:10049E00740012007E740612007E740212007E74C6
:1004AE002012007EE944C0120083742012007E7474
:1004BE002012007E74FF12007E742012007E2275C0
:1004CE00F003A49004D5730202BB0202F0020325CE
:1004DE0002035A02038F0203C40203F902042E021E
:1004EE000463020498C0E088F0A9F0C4540F12040B
:1004FE00CDE82403F9D0E0540F1204CD2275817F8C
:10050E001200DC1200F875E60075E700D2AF12009B
:10051E0088120175D200753200753600753300757C
:10052E003A0120C520C0027A32120039D00220C50D
:10053E001430C5FDC2CAE4F530F531F532F536F5A5
:10054E0033D2CA80033000DAC200C0E0740F141236
:10055E0000C1D0E0C000A8321200C6D0007807E576
:10056E00361204F37800E5331204F3E533D4B412F3
:10057E00127000E536B4000BE532B40006E4E53A3D
:10058E00F4F53AE53AB40154B40000C0E0740E1428
:10059E001200BFD0E0C0E0745012007ED0E0C0E088
:1005AE00740F141200BFD0E0C0E0744D12007ED064
:1005BE00E0C0E07407141200C1D0E0C0E0742E1247
:1005CE00007ED0E0C0E07407141200BFD0E0C0E09F
:1005DE00742E12007ED0E0F53A020530C0E0740EA3
:1005EE00141200BFD0E0C0E0744112007ED0E0C013
:1005FE00E0740F141200BFD0E0C0E0744D12007E04
:10060E00D0E0C0E07407141200C1D0E0C0E0742E38
:10061E0012007ED0E0C0E07407141200BFD0E0C01C
:0D062E00E0742E12007ED0E0F53A02053097
:00000001FF
